:020000040800F2
:100000006009002065020008FF330008652D000824
:10001000FD330008A51A0008CB36000800000000D8
:100020000000000000000000000000002135000872
:10003000A71A00080000000001340008233500085A
:100040007F0200087F0200087F0200087F0200088C
:100050007F0200087F0200087F0200087F0200087C
:100060007F0200087F0200087F0200087F0200086C
:100070007F0200087F0200087F0200087F0200085C
:100080007F0200087F0200087F02000800000000D5
:100090000000000000000000000000007F020008D7
:1000A0007F0200087F0200087F0200087F0200082C
:1000B0007F0200087F0200087F0200087F0200081C
:1000C0007F0200087F0200087F0200087F0200080C
:1000D0007F0200087F0200087F0200080000000085
:1000E0007F0200087F0200087F0200080000000075
:1000F0000000000000000000000000007F02000877
:10010000000000007F0200087F0200087F02000854
:1001100000000000000000000000000000000000DF
:100120007F0200087F0200087F0200087F020008AB
:100130007F02000800000000000000000000000036
:100140000000000000000000000000007F02000826
:100150007F0200087F0200087F0200087F0200087B
:100160007F0200087F02000800000000000000007D
:10017000000000000000000000000000000000007F
:10018000000000007F0200080000000000000000E6
:100190007F0200087F02000800F002F800F052F829
:1001A0000AA090E8000C82448344AAF10107DA45D2
:1001B00001D100F047F8AFF2090EBAE80F0013F0D2
:1001C000010F18BFFB1A43F001031847FC3E000063
:1001D0001C3F0000103A24BF78C878C1FAD85207F3
:1001E00024BF30C830C144BF04680C6070470000B1
:1001F0000023002400250026103A28BF78C1FBD830
:10020000520728BF30C148BF0B607047662903F012
:10021000D486652903F0D186672903F0CE8661294B
:1002200003F0CD86002070471FB503F0BCFE00F040
:10023000D7FD04000020002103F06EFCE0601FBD2C
:1002400010B510BD00F0CCFE1146FFF7EDFF03F036
:10025000FBFB00F0EAFE03B4FFF7F2FF03BC00F083
:100260002DFF00000948804709480047FEE7FEE7E8
:10027000FEE7FEE7FEE7FEE7FEE7FEE7FEE7FEE756
:1002800004480549054A064B70470000B935000887
:10029000990100086003002060090020600500202B
:1002A0006005002053EA020C00F069802DE9F04B54
:1002B0004FF00006002B1FBFB3FA83F503FA05F4D5
:1002C00024FA05F65E4012BF1643B2FA82F502FA2E
:1002D00005F4C5F120051EBF22FA05FC44EA0C0412
:1002E000203556EA044C4FEA144418BF641C4FF002
:1002F00000084FF00009904271EB030C39D300293C
:1003000019BFB1FA81F701FA07F6B0FA80F700FADF
:1003100007F6C7F120071EBF20FA07FC46EA0C06C5
:100320002037B6FBF4FCA7EB0507103F07F01F0BC7
:10033000CBF120060CFA0BFB2CFA06F644BFB346B1
:100340000026202FA4BF5E464FF0000B5BEA060C90
:1003500008BF4FF0010B19EB0B09ABFB027C48EB1C
:100360000608C01B06FB02CC0BFB03CC71EB0C0197
:10037000C1E70B46024641464846BDE8F08B13B53F
:100380004FF000004FF00001AFF30080BDE81C40CB
:10039000704700000FB41CB5074B06AA7B446946A2
:1003A0000090059800F003FD0020694600F012FD62
:1003B0001CBC5DF814FB0000350A000070B5044653
:1003C00085690068C10601D5302600E02026C007F7
:1003D00007D070BDD4E9012130469047206A401C07
:1003E00020626D1EF6D570BD70B504468569007833
:1003F000C00707D170BDD4E9012120209047206AB1
:10040000401C20626D1EF6D570BD00002DE9F05F26
:10041000894604464FF0000ADFF874B1FB44C0F887
:1004200020A02046E1688847002874D0252806D0FF
:10043000D4E901219047206A401C2062F1E70026A0
:100440005F462046E16888472028054607DB312DB6
:1004500005D2781910F8200C08B10643F1E7B0076F
:1004600001D526F00406C4F81CA00027C4F818A083
:100470002A2D09D0284603F051F938B304EB870838
:10048000303DC8F8185019E059F8041B204604EB19
:1004900087029161E1688847012F054618D1E0691C
:1004A000002820DA26F020061DE0D8F8180000EB1E
:1004B000800005EB40003038C8F818002046E1689D
:1004C0008847054603F02AF90028EED1012F0AD00B
:1004D0002E2D08D12046E16888477F1C0546022F53
:1004E00046F02006C4DBA069002803DA404246F04B
:1004F0000106A061F00701D026F010066C2D0BD08C
:10050000682D09D04C2D39D06A2D35D0742D35D0B9
:100510007A2D33D016E038E0E1682F462046884730
:10052000B842054609D16C2F26D04FF48060E168AF
:10053000064320468847054604E06C2F1AD04FF446
:10054000807006430DB3A5F14100192802D820356B
:1005500046F400664A462946204626604E46FFF786
:1005600055FE80B101280BD0F61D26F0070000F1E2
:10057000080956E74020E4E78020D8E70020D6E7C6
:1005800006F104094DE7284652E7206ABDE8F09FCE
:10059000DA3B000010B5431C02E010F8011B71B1FA
:1005A0008107FAD14FF0013202C88C1A8C4314EA49
:1005B000C211F9D0C01A0A0603D0C01E10BDC01A5D
:1005C00010BD0A0401D0801E10BD0902FCD0401EDF
:1005D00010BD10B5203AC0F00B80B1E81850203A99
:1005E000A0E81850B1E81850A0E81850BFF4F5AFD3
:1005F0005FEA027C24BFB1E81850A0E8185044BF5D
:1006000018C918C0BDE810405FEA827C24BF51F8C9
:10061000043B40F8043B08BF7047D20728BF31F8BD
:10062000023B48BF11F8012B28BF20F8023B48BF0E
:1006300000F8012B70474FF0000200B513469446B6
:100640009646203922BFA0E80C50A0E80C50B1F12A
:100650002001BFF4F7AF090728BFA0E80C5048BF3E
:100660000CC05DF804EB890028BF40F8042B08BFDC
:10067000704748BF20F8022B11F0804F18BF00F8D8
:10068000012B704770477047704770472DE9FF4F47
:100690000C461E464FF0FF378BB0D2E90001DDF863
:1006A00060800A908A46C1F30A5505B93D4600218B
:1006B00008464FF00000BAF1000F00F4400005DAE0
:1006C00000EB80004FF4400101EA50004FEA9059DE
:1006D000B9F1010F00DDB9460A9850EA4A000ED080
:1006E00044F61050A5F2FF3545432F14B8F1000F22
:1006F0001ED07542291E1EDDC9F100021CE0B8F1B2
:10070000010F4FF0000001D0302103E0F24305E07B
:100710002154401CB042FBDB304600220021215412
:100720000B99C1F80880C1E900200FB0BDE8F08F37
:10073000BD1B6D1CDEE74A4600DA694206A800F0E0
:10074000D9FB06AB93E8070003AB83E807005046EC
:100750000A9900F0BAFC8DE80700A0F500501F3898
:1007600000900398002D0ADD42F21F014A4608441A
:10077000002303A90390684600F023FF09E0A0F5D9
:1007800000504A461F38002303A90390684600F032
:100790002DFF8DE807000004000C03D04FF0FF3060
:1007A000410800E01046B8F1000F03D0002200928B
:1007B00015461EE0751E05D400F016FB303262555A
:1007C0006D1EF9D5B3460122084302D000227F1CDA
:1007D00004E02078302801D100227F1E002A0997EA
:1007E00084D01DE0112D07DA00F0FEFA3032625598
:1007F0006D1C50EA0102F5D1084302D00098C8B13F
:100800000EE00021681E05E0235C625C6354225404
:10081000401E491C8142F7DBAB46A81B401E0990D5
:10082000002004F80B000B98099AC0F80880C0E972
:10083000002B7AE711264FF0000857E72DE9F04F1B
:1008400088460446D21D22F0070191B0D1E900018B
:10085000CDE90A0102F03AFF02460B98C00F01D021
:100860002D2007E02068810701D52B2002E0202100
:1008700001EAC000032A099001D0072A05DB0346DC
:100880004146204600F0F6FA0BE12078800601D5BB
:10089000E06900E00620B8F1650F814606D0B8F1A6
:1008A000660F18D0B8F1670F70D131E00020B9F1B0
:1008B000110F009001DB112301E009F101030AAAE5
:1008C00001A90CA8FFF7E2FEDDE90C70002609F192
:1008D0000105834647E001204B4600904FF000475A
:1008E0000AAA01A90CA8FFF7D1FEDDE90DB00C9909
:1008F0005D46002610B909F101000D18B9EB05009D
:1009000003D4C0F1FF3609F10105A5EB09002BE086
:10091000B9F1010F01DA4FF001090020B9F1110F0F
:100920000090484601DD112300E003460AAA01A910
:100930000CA8FFF7ABFEDDE90C704D4600268346A0
:10094000207800070AD4AB4500DA5D4601A8012DE6
:1009500004DD411911F8011C302907D04F4502DA96
:1009600017F1040F04DA012082460FE06D1EEEE756
:10097000002F02DCED1B3E4403E0781CA84200DDA2
:100980007D1CB81B00F1010A4FF0004720780007DA
:1009900003D4AA4501DB4FF0FF3A0021B7F1004F25
:1009A0000DF143088DF8431024D002202B23002F93
:1009B00001DA7F422D230A21021EA0F1010000DC92
:1009C0005FB197FBF1FC97FBF1F201FB1C7C174632
:1009D0000CF1300C08F801CDEEE7A8F1010003702E
:1009E0002188090501D5452100E06521A0F1010814
:1009F00000F8011C09980FA9A1EB0807FF1D00B121
:100A00000120411901EBEA70A1693844081A401E1F
:100A1000A0612078C00602D42046FFF7CFFC0998D9
:100A200028B1D4E901219047206A401C2062207837
:100A3000C00622D52046FFF7C1FC1EE0002E04DBD5
:100A4000B34502DD01A8805D00E03020D4E901213A
:100A50009047206A401C2062761CAAF101005FEAE0
:100A6000000A0AD100F0BCF9C0680168405CD4E912
:100A700001219047206A401C2062281EA5F1010533
:100A8000DCDC07E0D4E9012118F8010B9047206A6B
:100A9000401C2062381EA7F10107F3DC2046FFF757
:100AA000A3FC032011B041E62DE9F04F04460D46AA
:100AB000D21D22F0070089B0D0E900974846394698
:100AC00002F004FE0246F80F01D02D2307E0206853
:100AD000810701D52B2302E0202101EAC0038DF814
:100AE00020300BB1012000E00020032A824601D013
:100AF000072A04DB2946204600F0BCF93FE12078B4
:100B0000800601D40D2500E0E569C7F30A560D2DD6
:100B100049DA00214FEA175B08464FF00000002F2A
:100B200000F4400007DA00EB80004FF4400100EBD6
:100B3000D07001EA60008115012901DD4FF0FF311D
:100B400000224FEA850CBCF1180F06D31346ACF116
:100B500018004FF08052C24003E04FF4801323FA94
:100B60000CF30CF10C0CBCF1200F04D3ACF1200CF5
:100B700009FA0CF001E007FA0CF000294FF00048E8
:100B800001DD18B90FE00ED140450CD319EB020975
:100B90005F4121B9404502D19F4329EA0209BBEBDD
:100BA000175F00D0761C2088000502D57B4878446A
:100BB00002E07A487844193808AA302302F80A304B
:100BC000037C0AF10101002E0AF1020A53546A461D
:100BD00002DC4FF0300101E04FF031014FF001082D
:100BE0008DF8001002D0A6F2FF3603E059EA470163
:100BF00000D06B4E002D02DC2178090704D54FF0A0
:100C000002082E218DF80110C44600210BE0C7F325
:100C100003433F01C35C491C6D1E02F808300529DF
:100C200008F1010801DA002DF1DC00210CE000EBF5
:100C30001973491C1B786D1E082902F808304FEA09
:100C4000091908F1010801DA002DF0DC21688B0692
:100C500002D516E0A8F10108E04505DD02EB080326
:100C600013F8013C302BF5D0B8F1000F09DD02EB91
:100C7000080313F8013C2E2B03D1090701D4A8F176
:100C80000108002D05DD3E2102F808106D1E08F157
:100C90000108407C002E02F8080008F1010804DA7F
:100CA0002D20764202F8080002E02B2002F808000E
:100CB0000A214FF47A70864208F101080BDB96FB9B
:100CC000F0F3303302F8083096FBF0F308F1010836
:100CD00000FB136601E0642E0CDB642096FBF0F34E
:100CE000303302F8083096FBF0F308F1010800FBFE
:100CF000136601E00A2E06DB96FBF1F0303002F8B5
:100D0000080008F1010896FBF1F001FB106030309B
:100D100002F80800A16908F1010808EB050202EBDE
:100D20000A00081AA0612078C00602D42046FFF706
:100D300045FB216A08AE01EB0A00206204E0D4E919
:100D4000012116F8010B9047BAF1010AF7D2207879
:100D5000C00602D52046FFF731FB6E4609E016F8C3
:100D6000010B3E280FD0D4E901219047206A401C96
:100D70002062B8F10108F2D22046FFF735FB09B036
:100D80000320BDE8F08F206A2844206203E0D4E904
:100D90000121302090476D1EEBD3F8E76C34000042
:100DA00002FCFFFF01694A1C02610878704700B528
:100DB0008FB0CDE901310021059105497944CDE994
:100DC000031011466846FFF721FB0FB000BD00007D
:100DD000E5FFFFFF0A6802F8010B0A607047000098
:100DE000004870472003002030B5B0F10A024FEAF6
:100DF000900E71F100034EEA817EB0EB0E0061EBC4
:100E000091014FEA101E4EEA017E10EB0E0041EBFD
:100E100011114FEA102E4EEA016E10EB0E0041EB5D
:100E200011214FEA104E4EEA014E10EB0E0041EB3D
:100E30001141401841F100014FEAD00040EA4170F1
:100E40004FEAD10110EB80054FEA810444EA907427
:100E500044EB01046D1944EB0404521BA3414FF011
:100E6000000348BF0A3200D530BD401C41F10001EB
:100E700030BD00002DE9F0411F46044603260168FD
:100E8000072A01F4006004DB08B116A505E016A5E9
:100E900003E008B115A500E015A521F010002060C1
:100EA000A069C01EA0610FB1401EA0612046FFF7DF
:100EB00085FA4FB1D4E9012138469047206A401C99
:100EC0002062C01C206206E0206AFAE7D4E9012112
:100ED00015F8010B9047761EF8D22046FFF784FAEA
:100EE000BDE8F0814E414E006E616E00494E4600F5
:100EF000696E66002DE9F047814616468AB035488E
:100F000078440DC88DE80D0032487844801C03AC4D
:100F10000DC884E80D0041F69B300844372190FB52
:100F2000F1F290FBF1F5A5F1800501FB12041B3CE9
:100F300002D56442012000E00020DFF898A080463E
:100F40000027FA44AAF1BE0A0EE0E0070AD03246B2
:100F5000684607EB470101230AEB810100F046FBDD
:100F60008DE8070064107F1C002CEED1194F7F44E0
:100F7000AE3F19E0E80715D007EB04100DF1180A91
:100F800090E80E008AE80E00C068F04201D198197E
:100F900008903246012306A903A800F027FB03AB03
:100FA00083E807006D10641C002DE3D14FF00103AE
:100FB00032466946B8F1000F03A802D000F001FBE9
:100FC00001E000F013FBC9E90001C9F808200AB0EC
:100FD000BDE8F087AC3100000048704700030020F6
:100FE0007546FFF7F9FFAE4605006946534620F007
:100FF0000700854618B020B5FFF742F9BDE820404C
:101000004FF000064FF000074FF000084FF0000BC4
:1010100021F00701AC46ACE8C009ACE8C009ACE877
:10102000C009ACE8C0098D46704710B50446AFF35F
:1010300000802046BDE81040FFF70DB94FF0013C9D
:1010400050F8042B51F8043B9A4221D1A2EB0C0337
:10105000934313EACC1317D150F8042B51F8043BF7
:101060009A4215D1A2EB0C03934313EACC130BD194
:1010700050F8042B51F8043B9A4209D1A2EB0C031F
:10108000934313EACC13DBD04FF00000704700BF4E
:10109000D01A01BAB1FA81F101F0180122FA01F077
:1010A000CB40C1F12001DBB2C0B2C01A2CFA01F36F
:1010B000D11A914311EAC311E6D1704701491820B2
:1010C000ABBEFEE72600020070475FEA400C08BF97
:1010D00091F0000F4FEA8C234FEAC12243EA5151AD
:1010E0004FEA1C5018BF00F5F0404FEA300018BF1F
:1010F00041F000415FEA6C5C00F02980BCF1FF3FE9
:1011000008BF40F080407047130C06BF12044FF038
:10111000100C4FF0000C130E04BF12020CF1080C5F
:10112000130F04BF12010CF1040C930F04BF9200C3
:101130000CF1020CD30F04BF52000CF1010C11464C
:101140004FF00002A0F11F00A0EB0C00704711F05F
:10115000004F08BF704731F000413FF4D5AF0B0C92
:1011600006BF09044FF0100C4FF0000C0B0E04BF2B
:1011700009020CF1080C0B0F04BF09010CF1040C5F
:101180008B0F04BF89000CF1020CCB0F04BF490088
:101190000CF1010CCCF12003A0EB0C0022FA03F3BC
:1011A00002FA0CF241EA030100F10100704720F05D
:1011B0007F4C80EA030023F07F47ACEB070303F585
:1011C0007C5300F0004003F1FF032DE980494FEA12
:1011D000154B09B44FEA144325EA0B4E24EA0348A1
:1011E0000FF2042606EB132749083E785FEA320225
:1011F00003FB0667C7F5000707FB06F64FEA5437FF
:101200004FEAD64606F1020607FB066CCCF1005CFD
:101210004FEA1C472CEA074C07FB06F40CFB06F5CB
:1012200004EB15464FEA961634BF00204FF00040FD
:101230004FEAD13706FB07FC4FEA1C4C0CFB0BF7BF
:10124000D21B03FB0CF761EB07010CFB0EF7B0EBB5
:10125000074072EB17420CFB08F734BFA2EB0742C2
:10126000B2EB074261EB17414FEA0C444FEA91079A
:1012700006FB07FC4FEA1C4C0CFB0BF7B0EBC7401E
:1012800072EB573203FB0CF734BFA2EBC742B2EB51
:10129000C74261EB57310CFB0EF7B0EBC70072EBA6
:1012A00057720CFB08F734BFA2EBC702B2EBC702C0
:1012B00061EB5771039F4FEA816141EA921104EBA0
:1012C000CC044FEAD1374FEA826206FB07FC42EAC0
:1012D00090124FEA80604FEA1C4C0CFB0BF7D21BBC
:1012E00003FB0CF761EB07010CFB0EF7B0EB0740BB
:1012F00072EB17420CFB08F734BFA2EB0742B2EBCC
:10130000074261EB17414FEA8C554FEA910704EB16
:101310009C2406FB07FC4FEA1C4C0CFB0BF7B0EBC4
:10132000C74072EB573203FB0CF734BFA2EBC74246
:10133000B2EBC74261EB57310CFB0EF7B0EBC700C5
:1013400072EB57720CFB08F734BFA2EBC702B2EB8B
:10135000C70261EB577115EB4C254FEA816141EAF9
:1013600092114FEA82624FEAD13742EA901206FBAD
:1013700007FC44F100044FEA80604FEA1C4C0CFB70
:101380000BF7D21B03FB0CF761EB07010CFB0EF70D
:10139000B0EB074072EB17420CFB08F734BFA2EB2F
:1013A0000742B2EB074261EB174115EB1C154FEA00
:1013B000813141EA92414FEA823242EA90424FEA59
:1013C00080304FEA0C7644F1000448EA03434EEAC9
:1013D0000B484FF0000EB2EB080C71EB030724BF73
:1013E000624639464EEB0E0E4FF0000B001852418C
:1013F00049414BEB0B0BB2EB080C71EB03077BF194
:10140000000B24BF624639464EEB0E0E4FF0000B28
:101410000018524149414BEB0B0BB2EB080C71EB3E
:1014200003077BF1000B24BF624639464EEB0E0EDC
:1014300051EA020718BF46F0010616EB0E7655F189
:10144000000254F1000103D5BDE88901BDE8008820
:10145000BDE88901BDE80048B619524141EB0101E0
:10146000A3F10103704780807F7E7D7C7B7A797851
:10147000777676757473727171706F6E6E6D6C6C59
:101480006B6A6A69686867666665646463636261FB
:101490006160605F5F5E5E5D5D5C5C5B5B5A5A597C
:1014A00059585857575656555555545453535252E8
:1014B0005251515050504F4F4F4E4E4D4D4D4C4C40
:1014C0004C4B4B4B4A4A4A49494948484847474789
:1014D00047464646454545444444444343434342C6
:1014E000424242414141002B9C4630D477002BD0F0
:1014F0001CB54FEA370703B44FF010004FF010014E
:10150000BAF1000F06D0BCF1000FDCBF40F00800BC
:1015100040F008014FF000000FBCBDE810400BF197
:10152000010BBBF1010F08BF5FEA170722BF12F1E1
:10153000010211F101014FF0004143F1000300F0FD
:10154000004043EA00007047F9D35708D0E746EA65
:10155000064613F1400F4FEA16461FDD13F1200F28
:10156000DFBF16430A46002120335B42BED0C3F1E1
:10157000200746EA064602FA07F74FEA164646EA09
:101580000706C3F1200722FA03F201FA07F721FA4E
:1015900003F14FF0000342EA0702A7E746EA02061A
:1015A00046EA06464FEA164646EA0106BCBF46EA48
:1015B0000646360C4FF000034FF000024FF00001DA
:1015C00094E72DE9804C9A46934670B491E8380030
:1015D00007C831EA400C48BF34EA430C03D5FFF793
:1015E000E6FDFFF780FFF0BCBDE8008C2DE9804CE4
:1015F0009A46934670B491E8380007C810F0804FBF
:1016000008BF13F0804F03D100F005F8FFF76BFF20
:10161000F0BCBDE8008C20F07F4780EA030023F097
:101620007F4C07EB0C03A3F57C5300F00040A3F1C3
:10163000FE0392F0000F00F0B38095F0000F00F071
:1016400077802DE901494FEA11404FEA144621EA1B
:10165000004800FB06FC24EA064708FB06F607FBE9
:1016600008F800FB07F718EB06484CEB164C4FEA5E
:10167000124B18EB07484FEA15464CEB174022EA8D
:101680000B4E0BFB06FC25EA06470EFB06F607FB96
:101690000EFE0BFB07F71EEB064E4CEB164C4FF005
:1016A00000061EEB074E4CEB174B18EB0B0840F1F6
:1016B000000018EB0E0B58EB000840F100008F1AE9
:1016C0004FF000013CBFC943661B14BFB5EB040CCF
:1016D00000213CBFC943F61B4FEA17444EEA8E0E69
:1016E00027EA04454FEA1C4704FB07622CEA074C33
:1016F00005FB07F70CFB05F604FB0CFC16EB074695
:1017000042EB174216EB0C4642EB1C421BEB060663
:1017100058EB0202414146EA9E0601D5BDE8018927
:10172000B619524141EB0101A3F10103BDE8018962
:101730004FEA14454FEA114724EA054621EA074CCF
:1017400005FB07F406FB07F70CFB06F105FB0CFC99
:1017500011EB074144EB17444FEA124711EB0C41E0
:1017600044EB1C4422EA074C05FB07F206FB07F793
:101770000CFB06F605FB0CFC16EB074642EB17428A
:1017800016EB0C4642EB1C456A1854F1000148BFA9
:101790007047B619524141EB0101A3F101037047B3
:1017A00095F0000F37D04FEA11424FEA144721EA73
:1017B000024624EA074C02FB07F106FB07F70CFB85
:1017C00006F402FB0CFC14EB074441EB17414FEA13
:1017D000154714EB0C4441EB1C4125EA074C02FB76
:1017E00007F506FB07F70CFB06F602FB0CFC16EBF5
:1017F000074645EB174516EB0C4645EB1C42121904
:1018000051F1000148BF7047B619524141EB010147
:10181000A3F1010370474FEA14454FEA114724EA48
:10182000054621EA074C05FB07F106FB07F70CFB11
:1018300006F24FF0000605FB0CFC12EB074241EBF1
:10184000174112EB0C4251EB1C4148BF70479218F4
:1018500041EB0101A3F1010370470000464910B5B7
:101860004A6822F440324A604A6843681A434A6030
:1018700001684A6822F480724A6001684A68036914
:1018800042EA03224A6001684A6822F040724A60D4
:1018900001684A6883681A434A6001688A6822F4CA
:1018A00000628A6001688A68C3681A438A60816A34
:1018B0006FF07062D14201688A6822F070628A60BB
:1018C00001688A680CD0836A1A438A6001688A6852
:1018D00022F040528A6001688A68C36A1A4301E0B4
:1018E00022F040528A6001688A6822F002028A600F
:1018F00001688A68037E42EA43028A6090F82010F9
:10190000002901684A680FD042F400624A60016809
:101910004A6822F460424A6001684A68174C436A88
:1019200004EB43331A4301E022F400624A60016889
:10193000CA6A22F47002CA620168CA6A838B104CB8
:1019400004EB03531A43CA6201688A6822F40072E6
:101950008A6001688A6890F8303042EA43228A60DF
:1019600001688A6822F480628A6001688A68406936
:1019700042EA8020886010BD0023014000E0FFFFA4
:101980000000F0FF70B5424C2DED0A8BB0EE408A9E
:10199000F0EE608A51EC180B9FED3E0B9FED349BEF
:1019A0009FED35AB9FED36BB9FED37CB53EC102B46
:1019B00002F052FA08D853EC192B51EC180B02F034
:1019C00011F901D8012045E053EC192B51EC180B0B
:1019D00002F042FA08D253EC1A2B51EC180B02F029
:1019E00001F901D8022035E053EC1A2B51EC180B09
:1019F00002F032FA08D253EC1B2B51EC180B02F018
:101A0000F1F801D8032025E053EC1B2B51EC180B07
:101A100002F022FA08D253EC1C2B51EC180B02F006
:101A2000E1F801D8042015E053EC1C2B51EC180B05
:101A300002F012FA0AD251EC180B9FED180B53EC7E
:101A4000102B02F0CFF801D8052003E0202001F090
:101A5000B5FB00200125A06003E0FF2001F0AEFBF4
:101A60006D1CA0688542F8DDBDEC0A8B70BD0000DE
:101A70001F85EB51B81EE53F1F85EB51B81EF53FA2
:101A8000AE47E17A14AEFF3F1F85EB51B81E05400B
:101A9000000000209A9999999999B93F66666666FF
:101AA00066660A40FEE7704778B50024009490F817
:101AB0003C20012A19D0012280F83C200A68072323
:101AC0000568092A13D9EE680A3A02EB42029340EC
:101AD0009E43EE600B788A680A3B03EB43039A400F
:101AE0000368DD682A43DA6010E0022078BD2E69C1
:101AF00002EB420293409E432E610B788A6803EB0F
:101B000043039A4003681D692A431A614A681F23E8
:101B1000072A13D205686E6B521E02EB82029340B5
:101B20009E436E630A8893B20A79521E02EB8202C8
:101B300093400268556B2B43536327E005680D2AD9
:101B400012D22E6BD21F02EB820293409E432E6371
:101B50000B790A88DB1F92B203EB83039A40036878
:101B60001D6B2A431A6311E0EE6A0D3A02EB820202
:101B700093409E43EE620B790A880D3B92B203EBD1
:101B800083039A400368DD6A2A43DA621B4B0568C7
:101B9000194A9D420AD10D68122D07D1556825F4C6
:101BA00000055560556845F48005556005689D42FF
:101BB0001DD1134D0B68AB4201D0112B17D15368C7
:101BC00023F480035360536843F4000353600968AF
:101BD000A9420CD10B490C4A0968B1FBF2F101EBA7
:101BE0008101490000E0491E00910029FBD180F8E5
:101BF0003C40002078BD000000230140002001404F
:101C0000120000103400002040420F000068C06C39
:101C1000704770B504004FF0000503D0206C00261B
:101C200010B107E0012070BD204600F01DF8666489
:101C300084F83C60206CC00610D4206C20F48850DE
:101C400040F0020020642046FFF708FE6664206C26
:101C500020F0020040F00100206400E0012584F83B
:101C60003C60284670BD000010B586B004461421C3
:101C70006846FEF7E0FC1149206888421CD11048F4
:101C80000021026842F480720260006800F48070F3
:101C900005900B481438026842F0010202600068A7
:101CA00000F001000590022000900320CDE9010121
:101CB0006946044800F0F4F806B010BD0020014069
:101CC00044380240000002402DE9F041044600681B
:101CD0000D4681684FF0000749050BD58068C005A7
:101CE00008D5206C40F02000206484F83C7001206E
:101CF000BDE8F08100F0CEF9064613E0681C11D073
:101D000025B100F0C7F9801BA8420BD920680068F4
:101D1000800707D4206C40F00400206484F83C70F5
:101D20000320E5E7206800688007E7D521686FF0A9
:101D300012000860206C40F4007020642068816804
:101D400011F0405F13D1217E89B9C16A11F4700F7F
:101D500002D0806840050AD4206C20F48070206492
:101D6000206CC00403D4206C40F0010020640020EB
:101D7000BEE7000018B50021009190F83C20012A30
:101D800007D0012280F83C2002689368DB0702D06C
:101D900011E0022018BD936843F001039360244AC8
:101DA000244B1268B2FBF3F202EB420200E0521E37
:101DB0000092002AFBD102689368DB072ED0036CE7
:101DC00040F20164A34343F48073036453685B05EA
:101DD00005D5036C23F4005343F480530364036C70
:101DE000DB0404D5436C23F00603436400E0416444
:101DF00080F83C1010496FF02203136049680068B6
:101E0000C90602D00D49884210D1816811F0405FA7
:101E10000CD1816841F08041816007E0016C41F0A4
:101E200010010164416C41F001014164002018BDC2
:101E30003400002040420F000023014000200140F8
:101E400090F83C1001290CD0012180F83C10016869
:101E50008A6822F001028A6001688968C90702D095
:101E600007E002207047016C21F4885141F0010124
:101E70000164002180F83C100846704770B50446A4
:101E800000F008F90546601C02D0044800780444BC
:101E900000F000F9401BA042FAD370BD28000020DA
:101EA0002DE9F84FDFF8B8A1002201240AF1040B54
:101EB00003254FF00F090BF1040E00BF0B6804FA65
:101EC00002F63340B34273D10F7907F00307012FB5
:101ED00001D0022F16D187684FEA420805FA08FCA4
:101EE00027EA0C07D1F80CC00CFA08FC4CEA070CE6
:101EF000C0F808C04768B7430E79C6F3001696408D
:101F00003E4346600E79F643B6070DD0C7685600CB
:101F100005FA06FC27EA0C07D1F808C00CFA06FC03
:101F20004CEA070CC0F80CC00E7906F00306022E2E
:101F300010D1D60800EB8608D8F8206057074FEA82
:101F4000D76C09FA0CF7BE430F6907FA0CF7374351
:101F5000C8F8207006684FEA420C05FA0CF7BE4339
:101F60000F7907F0030707FA0CF7374307604E684D
:101F700016F4403F6DD03B4E376847F480473760DA
:101F8000366822F0030706F480460096364E07EBCB
:101F9000060CDCF8086897073F0F09FA07F826EAED
:101FA0000806DFF8C880404503D14FF000081EE066
:101FB0004FE0DFF8BC80404502D14FF0010816E049
:101FC000DFF8B080404502D14FF002080FE0DFF8A3
:101FD000A880404502D14FF0030808E0DFF89C805C
:101FE000404502D14FF0040801E04FF0070808FA1D
:101FF00007F848EA0608CCF80888DAF8006057467F
:10200000D1F804C09E435FEACC3C00D51E433E603D
:10201000DBF800605F46D1F804C09E435FEA8C3C69
:1020200000D51E433E60DEF800607746D1F804C05C
:102030009E435FEACC2C00D51E433E60084F0C3710
:102040003E68D1F804C09E435FEA8C2C00D51E4345
:102050003E60521C102AFFF431AFBDE8F88F00003B
:10206000003C014044380240003001400000024082
:102070000004024000080240000C02400010024030
:102080000069084000D0012070470AB181617047A3
:102090000904FBE701488068704700002800002021
:1020A00070B5040025D094F83D00002520B984F8CF
:1020B0003C50204600F004FA242084F83D002068BB
:1020C000016821F0010101602068016841F40041CC
:1020D00001602068016821F40041016000F04AFBC2
:1020E0004D4A6168914201D84C4900E04C49884210
:1020F00001D2012070BD4B492368B0FBF1F15E684D
:1021000026F03F060E435E606368934206D94FF4A3
:10211000967359434FF47A73B1FBF3F12368491C6A
:102120001E6A26F03F06314319626168914210D859
:102130004900401EB0FBF1F2521CC2F30B02042A0C
:1021400001D2042022E0B0FBF1F0401CC0F30B00F0
:102150001CE0A268F2B301EBC10303EB0116431EBE
:10216000B3FBF6F35B1C43F480431B0549D092B3E9
:1021700001EBC10202EB0111401EB0FBF1F0401C6B
:10218000C0F30B0040F4804040F400402168CA696D
:102190004CF6FF739A431043C861D4E9071001431A
:1021A0002068026822F0C00211430160D4E90301F3
:1021B00001432068826848F2FF339A4311438160EB
:1021C000D4E9050108432168CA6822F0FF021043E0
:1021D000C86001E00EE016E02068016841F00101EE
:1021E00001602564202084F83D00256384F83E507A
:1021F000002070BD01EB4106431EB3FBF6F35B1CF0
:10220000B3E70120C2E701EB4101401EB0FBF1F052
:10221000401CC0F30B00B7E7A086010080841E00BD
:1022200000093D0040420F002DE9FF4F81B0894673
:102230000446FFF72FFF054694F83D004FF00108D4
:1022400020287DD11923012250492046009500F015
:1022500015FE002874D194F83C00012870D00120AC
:1022600084F83C0020680168C90703D1016841F087
:10227000010101602068016821F4006101602420EF
:1022800084F83D00002626644148E0624FF0011BBF
:1022900020272068016841F48071016000950022C8
:1022A00059462046049B00F0E9FD50B120680068C3
:1022B000C00502D54FF400702064032005B0BDE8CE
:1022C000F08F216809F0FE000861FFF7E3FE216846
:1022D000054648694969C0F34000C1F380214FF0C9
:1022E000A00A0FE0FFF7D6FE411B0498814200D8F8
:1022F00008B984F83DA0216848694969C0F34000E5
:10230000C1F3802194F83D20A02A02D008B9002909
:10231000E8D084F83D7020684169C943890716D424
:10232000016841F4007101602068416980691923E6
:10233000012216492046009500F0A0FDB8B900E042
:1023400021E084F83D7084F83C600020B6E7016825
:1023500041F40071016021686FF4806048611923C5
:1023600001220A492046009500F088FD08B10120AD
:10237000A4E7039808F1010880458AD384F83D70EA
:1023800084F83C60F3E7022098E7000002001000A8
:102390000000FFFF2DE9F84F1F4690468A4604468D
:1023A000DDF82890FFF776FE054694F83D002028DA
:1023B0007FD11923012240492046009500F05EFD9F
:1023C000002876D194F83C00012872D0012084F8CE
:1023D0003C0020680168C90703D1016841F0010190
:1023E00001602068016821F400610160212084F807
:1023F0003D00102084F83E0000262664C4F82480A6
:102400006785608D20852D48E0622B464A465146FF
:10241000204600F0BFFC90B92068416980690090B7
:1024200036E02A464946204600F0A7FD50B1206C10
:10243000042804D12068016841F400710160012082
:10244000BDE8F88F606A216800780861606A401C06
:102450006062618D491E6185218D491E89B2218589
:1024600022685369DB435B070BD451B100781061DC
:10247000606A401C6062608D401E6085208D401E39
:1024800020852A464946204600F0D2FC0028CED1BD
:10249000208D0028C5D154F83D0B016841F400712E
:1024A0000160202004F81E09E67766770020C7E760
:1024B000FFE70220C4E70000020010000000FFFF59
:1024C00010B586B0044614216846FEF7B4F81349E7
:1024D0002068884220D112480021026842F002029E
:1024E0000260006800F002000590C02000901220F9
:1024F000CDE90101032003900420049069460948B6
:10250000FFF7CEFC06481030016841F4001101606D
:10251000006800F40010059006B010BD00540040A3
:1025200030380240000402400248816802781144B9
:1025300081607047280000200B4810B5016841F405
:1025400000710160016841F480610160016841F43B
:1025500080710160032000F061F80F2000F006F8A0
:1025600000F024F8002010BD003C024070B50D4D75
:1025700004464FF47A712878B1FBF0F00A490968F3
:10258000B1FBF0F000F0ECFA48B9102C07D20022B1
:102590002146501E00F022F800206C6070BD012022
:1025A00070BD000028000020340000200A4808B553
:1025B000016841F480410160006800F480400090AF
:1025C0000548001F016841F080510160006800F07B
:1025D0008050009008BD000044380240F0B40E4B1B
:1025E0001B680C46C3F30223C3F10705042D00D971
:1025F0000425191D072901D2002300E0DB1E012656
:1026000006FA05F1491E214099409E40761E16406B
:102610003143F0BC01F072B80CED00E0064900F067
:10262000070208684FF6FF03184040EA0220034AF9
:1026300010430860704700000CED00E00000FA0550
:102640002DE9F0470E46050065D0DFF81481D8F873
:102650000000F7B200F00700B04207D288F800701F
:10266000D8F8000000F00700B04254D128683D4C73
:10267000810712D5400703D5206840F4E050206060
:102680002878000703D5206840F460402060206867
:10269000A96820F0F000084320602878C0072DD0FA
:1026A000304968680839012812D0022813D003285D
:1026B00011D00968890700292DDA216821F003016A
:1026C00001432160FFF7E6FC814641F2883A0EE0C3
:1026D00009688903EFE709688901ECE7FFF7DAFC8D
:1026E000A0EB0901514502D90320BDE8F08720681D
:1026F000696800F00C00B0EB810FEFD1D8F8001042
:10270000404601F00701B14207D90770006800F0A8
:102710000700B04201D00120E7E72878400705D53F
:102720002068E96820F4E05008432060287800071A
:1027300006D52068296920F4604040EAC100206085
:1027400000F028F82168084AC1F30311515CC84021
:102750000649086006480068FFF708FF0020C4E744
:10276000003C024008380240E23F000834000020EC
:102770002C0000200448054900680968044AC1F398
:102780008221515CC8407047340000200838024064
:10279000F23F0008154810B5006810F00C0214480C
:1027A00013D04110042A0FD0082A0ED10F4C241F39
:1027B0002268236802F03F025B0207D52068C0F35D
:1027C0008810A0FB010106E0084610BD2168C1F396
:1027D0008811A1FB00010023FDF764FD2168C1F30E
:1027E0000141491C4900B0FBF1F010BD083802401E
:1027F0000024F4002DE9F84F04006ED02078DFF8B3
:102800004C93C007A9F104054AD009F104000168FE
:10281000C1F38101012908D00068C0F381000228BA
:102820000AD1D9F80000400206D52868800337D5C0
:1028300060680028E1D033E06068B0F5803F10D0D8
:10284000B0F5A02F286810D020F4803028602868C8
:1028500020F4802028606068A8B1FFF71BFC0646C2
:102860000DE0286840F48030F4E740F480202860D0
:10287000F7E700BFFFF70EFC801B642873D82868B9
:102880008003F7D50CE0FFF705FC064605E000BF26
:10289000FFF700FC801B6428F0D828688003F7D479
:1028A0002078DFF8AC8280074FF0000A3ED5A748B9
:1028B000001D016811F00C0F08D00068C0F3810002
:1028C00002280BD1D9F80000400207D428688007FD
:1028D00016D5E068012800D112E033E1E068B8B114
:1028E0000120C8F80000FFF7D5FB064605E000BF51
:1028F000FFF7D0FB801B0228C0D828688007F7D5D7
:102900002868216920F0F80040EAC10028600DE045
:10291000C8F800A0FFF7BEFB064604E0FFF7BAFBCD
:10292000801B02281FD828688007F7D4207800076A
:1029300022D5864F87486169703771B101210160E6
:10294000FFF7A8FB064604E0FFF7A4FB801B022864
:1029500009D838688007F7D50EE0C0F800A0FFF767
:1029600099FB064605E082E0FFF794FB801B0228F6
:102970007DD838688007F7D42078400768D5DFF81D
:10298000CCB100270BF13C0BDBF80000C0000BD4EE
:10299000DBF8001041F08051CBF80010DBF80000AC
:1029A000012700F0805000906B4E3068C00510D4B5
:1029B000306840F480703060FFF76CFB009005E0F9
:1029C000FFF768FB0099401A022850D83068C0050C
:1029D000F6D55E4EA0686C3601280FD00528306809
:1029E00010D020F001003060306820F0040030602A
:1029F000A068B8B1FFF74EFB00900FE0306840F0E0
:102A00000100F4E740F004003060F7E7FFF742FB15
:102A10000099411A41F28830814266D830688007B7
:102A2000F4D50EE0FFF736FB009007E0FFF732FB2E
:102A30000099411A41F28830814256D830688007A7
:102A4000F4D42FB1DBF8001021F08051CBF8001046
:102A5000A069C8B33D49091D0968C1F38101022974
:102A60004AD00228504607D0C8F8600000E03CE099
:102A7000FFF710FB04463BE04746C8F86000FFF74D
:102A800009FB064605E000BFFFF704FB801B022898
:102A90002BD828688001F7D4D4E907010843A16A3C
:102AA0002E4A490802EB0141626A41EA8211084359
:102AB00094F82C1040EA0161C9F800100120386632
:102AC000FFF7E8FA044606E03EE000BFFFF7E2FA4F
:102AD000001B022809D828688001F7D534E000BF20
:102AE000FFF7D8FA001B022802D90320BDE8F88FAF
:102AF00028688001F4D427E00128F7D0D9F8000035
:102B0000E26900F4800191421CD1226A00F03F0189
:102B1000914217D147F6C071626A0140B1EB821F42
:102B200010D1A26A4FF0FF3300F4403103EB5202A0
:102B3000B1EB024F06D194F82C1000F07060B0EBAE
:102B4000016F01D00120D1E70020CFE70438024017
:102B500000004742800E4742007000400000FFFF27
:102B600010B5401EB0F1807F01D3012010BD4FF0A1
:102B7000E02460610F21601700F0C0FD0020A0611B
:102B800007202061002010BD70B590F83C20012A7C
:102B90002CD0012480F83C40022280F83D200368BC
:102BA0005A689D6822F070060A6832435A60104BDA
:102BB00002689A420ED0B2F1804F0BD00D4B9A4270
:102BC00008D00D4B9A4205D00C4B9A4202D00C4BC8
:102BD0009A4204D1496825F080031943916080F836
:102BE0003D40002180F83C10084670BD022070BDB9
:102BF000000001400004004000080040000C0040BC
:102C00000040014010B5040003D094F83D0010B11D
:102C100007E0012010BD002084F83C00204600F0B1
:102C20001FF8022084F83D00211D206800F0CCFC34
:102C3000012084F8460084F83E0084F83F0084F8C0
:102C4000400084F8410084F8420084F8430084F88E
:102C5000440084F8450084F83D00002010BD0000C9
:102C600008B500680649884208D10648016841F065
:102C700004010160006800F00400009008BD00003D
:102C8000000800404038024070B5044690F83C000F
:102C90000025012817D0012684F83C60022084F822
:102CA0003D002068826822F0770222F47F42826031
:102CB0000868502838D00DDC20284FD005DC90B3B0
:102CC000102811D14AE0022070BD302846D040289B
:102CD0000AD13BE060282FD070280DD0B0F5805F7E
:102CE00003D0B0F5005F12D0012584F83D600020CC
:102CF00084F83C00284670BDCB68D1E901212068EA
:102D000000F0AEFC2068816841F0770109E0CB68F3
:102D1000D1E90121206800F0A3FC2068816841F41A
:102D200080418160E1E719E0CA684968206800F0E5
:102D3000A9FC5021206806E0CA684968206800F0B4
:102D4000B2FC6021206800F095FCCEE7CA684968B3
:102D5000206800F097FC40212068F4E722680146D3
:102D60001046F0E7FEE701684A69D24352050FD4E6
:102D70006FF480624A61002140F8301F20224273C4
:102D80008173026942F004020261017301207047FD
:102D900000207047F8B50446C06A1E460D46174627
:102DA000082807D0012805D010F5803F02D0206BFD
:102DB000122804D12068016841F480710160134633
:102DC00000224FF001112046009600F057F840B164
:102DD00020680068C00502D54FF40070206403200D
:102DE000F8BD2069B0F5804F0ED00620216800EABA
:102DF000D51040F0F000086133463A460B492046B2
:102E000000F070F878B902E005F0FE0000E0E8B2EA
:102E100021680861054933463A46891F204600F07B
:102E200061F80028DCD00120F8BD00000800010096
:102E300070B516460D4604460DE02046FFF793FF99
:102E400008B1012070BD681C05D0FFF723F9801B75
:102E5000A84207D835B120684069C0434007ECD488
:102E6000002070BD002044F8300F20216173A07352
:102E7000216941F0200121612073E2E72DE9F0474B
:102E80001E4690460D460446C1F30747DDF82090E4
:102E900008E0701C06D0FFF7FDF8A0EB0900B04277
:102EA0000FD876B12068012F18D0806925EA00007C
:102EB0000004000C14D000214145EAD00020BDE8F8
:102EC000F087002044F8300F20216173A07321693E
:102ED00041F02001216120730120F0E74069E5E71E
:102EE0000121E9E72DE9F0479A4691460E4604464E
:102EF00000254FF02008C1F3074725E0206840690E
:102F0000C043400514D42068016841F40071016099
:102F100021686FF480604861256384F83D8084F8FF
:102F20003E50206C40F00400206484F83C501FE0C8
:102F3000B9F1FF3F08D0FFF7ADF8A0EB0A01494512
:102F40000CD8B9F1000F09D02068012F13D0806987
:102F500026EA00000004000C0BD0CFE744F8305FF5
:102F600084F80D80A573206940F02000206125734E
:102F70000120BDE8F0874069EAE770B516460D46C6
:102F800004460DE02046FFF7EEFE08B1012070BDBB
:102F9000681C05D0FFF77EF8801BA84207D835B122
:102FA00020684069C0430006ECD4002070BD0020BA
:102FB00044F8300F20216173A073216941F0200192
:102FC00021612073E2E700000449082801D00028AD
:102FD00003D1C871202000F0F1B870471400002020
:102FE00010B5012000F0C4F80A20FEF747FF03489F
:102FF0000021C1700121817010BD0000140000206B
:1030000010B5012000F0B4F84FF47A70FEF736FFE7
:10301000022000F0ADF80520FEF730FF282000F078
:10302000A7F80520FEF72AFF0C2000F0A1F80520E4
:10303000FEF724FF802000F09BF8BDE810404FF41D
:10304000FA70FEF71BBF10B504469AB010EE100AD6
:1030500000F038FF41EC100B214653EC102B684672
:10306000FDF798F90021684600F002F81AB010BD8B
:103070002DE9F047304D00260446EE7071B301296A
:103080002FD12E49002000BF41F82040401C641C75
:103090006428F9DB89460868FDF77CFA2871264F19
:1030A000A8780837391811F8011C00F049F8A978F8
:1030B00007F1040808EB010010F8014C1AE0641C49
:1030C00000F07CF8E878401CC0B2E870102805D108
:1030D000A8780121401C00F033F8EE702078002819
:1030E000EDD1BDE8F08700BF59F82400007800F06A
:1030F00065F8641C28798442F6DBA978781810F802
:10310000012C521E12F0FF0200F8012CE9D101221D
:10311000414400F8012C11F8012C521CD2B201F8E4
:10312000012C2B799A42DCD1102200F8012C01F8F5
:10313000016C2E71D5E70000140000201C01002056
:10314000094A9070421E012A0CD84A1E0F2A09D83B
:10315000064A02EB0010084410F8110C40F0800001
:1031600000F006B87047000014000020C23F0008BD
:1031700038B5104C627800EA020102EA0010E279E8
:1031800011431043617104F11002A07141F0040376
:103190001370517040F004019170D07000F0A4FBE6
:1031A000C8200090042304F1100221780248FFF7A0
:1031B000F1F838BD14000020AC02002038B5124CE4
:1031C000627800EA020102EA0010E27911436171BB
:1031D000104341F0050304F11002A071137041F097
:1031E0000101517040F00501917040F00100D07074
:1031F00000F07AFBC8200090042304F1100221782B
:103200000248FFF7C7F838BD14000020AC020020C8
:1032100070B53220FEF732FE00F066FB054D4FF42C
:103220007A742346032229780348FEF7FDFF00281D
:10323000F7D170BD14000020AC0200201FB50021A2
:103240001548009101910291124A039102600124F4
:103250004FF480320461C0E90121047680F8201027
:103260000E4AC0E90A21C461C16080F8301044618F
:10327000FEF7CFFC08B172B6FEE707200094CDE957
:10328000014069460448FEF70FFC002801D072B6E1
:10329000FEE71FBD00200140380000200100000FA4
:1032A0002DE9F04786B014216846FDF7C4F935488A
:1032B0000024016841F080010160016801F0800193
:1032C0000591016841F001010160016801F001010F
:1032D0000591016841F010010160016801F01001E1
:1032E0000591016841F0020101600068DFF89880F3
:1032F00000F002000590002204214046FEF7C5FEC2
:10330000DFF888904FF46046002231464846FEF7C9
:10331000BCFEDFF87CA04FF480670022394650469F
:10332000FEF7B3FE042000900125CDE90154694663
:1033300040460394FEF7B4FD4FF4C050CDE90004BD
:10334000694648460294FEF7ABFD0096CDE901546C
:10335000694648460394FEF7A3FD0097CDE9015462
:10336000694650460394FEF79BFD4FF47040CDE94B
:1033700000040220029069465046FEF791FD06B017
:10338000BDE8F087303802400000024000100240E3
:103390000004024010B586B0002417480094019440
:1033A0000294039404941349059401605321C0E9E5
:1033B00001144FF6FE71C0E903148461FFF722FC8B
:1033C00008B172B6FEE74FF48050009069460A4893
:1033D000FFF75AFC08B172B6FEE7049404A9064848
:1033E0000594FFF7D1FB002801D072B6FEE706B0C6
:1033F00010BD000000080040D4000020FEE7FEE7FA
:103400007047000010B51048FEF7B4FC42F210718E
:103410000D48FEF759FC002815D10B48FEF7F6FBC6
:103420000A4C80B2A08000F0CAFB9FED091B53EC50
:10343000112B00F013FC00F085FBE060BDE81040AC
:103440000148FEF7FDBC10BD380000200000002040
:103450006666666666664A3F70B52A48FEF78AFC6D
:1034600042F210712748FEF72FFC002849D1254869
:10347000FEF7CCFB244C80B2608000F0A0FB9FEDF7
:10348000231B53EC112B00F0E9FB00F05BFB2149FF
:10349000214D206188420DDC012251032846FEF7B0
:1034A000F4FD00224FF440412846FEF7EEFD1420C3
:1034B000FEF7E4FC17492069C94308444FF400466D
:1034C000B0F5000F0CD2012291032846FEF7DDFD76
:1034D000002231462846FEF7D8FD1420FEF7CEFC28
:1034E0000E492069884207DD012231462846FEF751
:1034F000CCFD1420FEF7C2FCBDE870400148FEF789
:103500009FBC70BD38000020000000207C444C8926
:10351000247A993F000008420010024000008842CF
:103520007047FFF701B8000030B593B0302168460E
:10353000FDF781F814210CA8FDF77DF81C48002543
:10354000016841F080510160006800F080501190E6
:103550001848016841F4404101600068022400F409
:103560004040119001200090000401908001CDE9BD
:10357000064008AA0420642182E813000B906846E4
:10358000FFF738F908B172B6FEE70CA90F2081E801
:1035900031004FF48050CDE90F0503210CA8FFF74F
:1035A0004FF8002801D072B6FEE713B030BD00001E
:1035B00040380240007000400248016841F4700148
:1035C0000160704788ED00E0F0B502681D4B1E4CAD
:1035D0009F031E4D1E4E984207D0B84205D0A04210
:1035E00003D0A84201D0B04204D122F0700C4A6846
:1035F00042EA0C02984210D0B8420ED0A0420CD041
:10360000A8420AD0B04208D0124CA04205D0124CB9
:10361000A04202D0114CA04203D122F44074CA68E7
:1036200022434C6922F08002224302608A68C2620F
:103630000A688262984201D10969016301214161EE
:10364000F0BD000000000140000400400008004000
:10365000000C00400040014000440140004801408F
:1036600010B5846842EA032224F47F440A432243CB
:10367000826010BD826822F070020A4342F00701A6
:103680008160704710B5036A046A24F00104046283
:10369000846924F0F00444EA021423F00A020A4385
:1036A0008461026210BD10B5036A23F01003036247
:1036B0008369046A23F4704343EA023224F0A003CE
:1036C00043EA01118261016210BDFEE703B4019873
:1036D0004100009850EAC12018BF04204A0D18BFCD
:1036E00040F0010040F2FF72B2EB515F08BF40F0C2
:1036F0000200012808BF052002B070470907090E23
:10370000002804DB00F1E02080F80014704700F08E
:103710000F0000F1E02080F8141D704730380A28AF
:1037200001D2012070470020704700002DE9F041D0
:103730004B4E4C4C4FF480654FF42F7705287DD2CB
:10374000DFE800F003171B426900002229463046DB
:10375000FEF79BFC01210846FFF7F2FC002142A086
:10376000FFF786FC01210220FFF7EAFC012143A0BC
:103770006BE0BDE8F04100F0E3B83846FEF77EFBB1
:10378000FFF72EFC1420FEF779FB01210846FFF716
:10379000D7FC94ED030A40A0FFF755FCE06800F069
:1037A00091FB41EC100BFEF7EDF800222946304664
:1037B000FEF76BFC01210220FFF7C2FCBDE8F041DF
:1037C000002138A0FFF754BCFFF746FE3846FEF74D
:1037D00055FBFFF705FC1420FEF750FB01210846BE
:1037E000FFF7AEFC94ED040A32A0FFF72CFC002199
:1037F00034A0FFF73DFC002229463046FEF745FC89
:1038000001210220FFF79CFCBDE8F0419FED2E0A4C
:103810002EA0FFF718BC012229463046FEF735FCE2
:1038200040F6B830FEF72AFB002229463046FEF764
:103830002CFC002127A0FFF71BFC00E00EE001217B
:103840000220FFF77DFC002116A0FFF711FC38468F
:10385000FEF714FBBDE8F041FFF7C2BBBDE8F08105
:1038600000040240000000204B53552045454D20E8
:103870004D454E5520415050000000004C45443A03
:103880003120424154415259413A32205349434137
:103890004B4C494B3A33200056313A252E326620A4
:1038A0005600000047657269206963696E20342004
:1038B00000000000536963616B6C696B3A252E66EA
:1038C000200000004300000000000000476572690E
:1038D000203420004C4544203520534E2059414E81
:1038E0004143414B0000000070B52A2212491348A1
:1038F000FCF76FFE104C608D104D6885E06AE86241
:10390000206B2863092204F1340105F13400FCF72F
:1039100060FE94F83D0085F83D0094F83E0085F87F
:103920003E00206C2864606C6864A06CA864E06C45
:10393000E864206D286570BD80000020AC02002086
:1039400070B501210846FFF7FBFB002127A0FFF718
:103950008FFB01210220FFF7F3FB002126A0FFF7D8
:1039600087FB294E4FF400613046FEF789FB351581
:10397000264C012827D0A1143046FEF781FB0128F0
:1039800032D1FFF72DFB6420FEF778FA002120A04A
:10399000FFF76EFB012229462046FEF776FB4FF427
:1039A000FA5000BFFEF76AFA002229462046FEF7C9
:1039B0006CFB01210220FFF7C3FBBDE87040002132
:1039C00018A0FFF755BBFFF70BFB6420FEF756FA74
:1039D000002118A0FFF74CFB012229462046FEF7E4
:1039E00054FB40F6B830DDE770BD00003320736E45
:1039F000206963696E203500203820736E2069636A
:103A0000696E2036000000000010024000040240F1
:103A1000382073616E6979652079616E69796F729A
:103A2000000000002047657269206963696E2034D8
:103A300000000000332073616E6979652079616E42
:103A400069796F7200000000FEF776FDFFF76CFDEC
:103A5000FFF726FC2C482B49002401602B49C0E9C4
:103A600001144FF48045C0E9034544618461C46199
:103A70000462FEF715FB08B172B6FEE7FFF7DEFB46
:103A8000FFF788FCFFF7C4FBFFF7BAFA0820FFF73F
:103A90009BFA01210846FFF753FBAA461C4E1D4D19
:103AA0004FF4004B01274FF002094FF0030828881C
:103AB000FFF73CFEFFF7A6FC59463046FEF7E0FA5A
:103AC000012818D04FF480513046FEF7D9FA01286A
:103AD00013D04FF400513046FEF7D2FA01280ED031
:103AE00051463046FEF7CCFA0128E0D14046288006
:103AF000FFF71CFEDBE72046F9E73846F7E74846C4
:103B0000F5E700000054004080000020A08601007E
:103B1000000402400000002010B500290AD00878F7
:103B2000002807D005487844FDF788FA002801D01E
:103B3000002010BD0248784410BD0000C2050000FE
:103B4000BA05000021F00042A2F16052B2F5801FD8
:103B500001F0004328BFD2F17F6C0BD95FEA001C53
:103B600043EAC20242EB507018BF704728BF20F0F2
:103B700001007047B2F5801FBCBF184670474FEA7E
:103B8000410C1CF5001F02D2084600F011BA70B5B6
:103B900000F00EF900000089FFF7F6BF4FF000407B
:103BA000A0F580007047491058BFC1F140415B103B
:103BB00058BFC3F140438B42EFF300807047B0FA27
:103BC00080F310FA03F10AD0C3F11D0303F58063FB
:103BD0004FEA41504FEA035202EBD12170474FF0B8
:103BE0000000704751EA030C17D41CF5801F58BF22
:103BF000BCF5801F00F10680994218BF704708BFCE
:103C00009042704707D711F5801F58BF13F5801FEA
:103C100019D499427047894270471CF5801F08D516
:103C2000BCF5801FF7D58B4218BF704708BF824292
:103C300070474FF4001C1CEB410F38BF1CEB430FC7
:103C400001D28B42704770B500F0B2F8922449005F
:103C50004FF000514FF08053FFF7A5BFDFF848C188
:103C600070B51CEA111E1EBF1CEA13159EEA0C0F4C
:103C700095EA0C0F00F06F8081EA030423EA4C13ED
:103C80004EEAD47E21EA4C1141F4801143F48013B2
:103C9000AE44A1FB024CA0FB0365AEF17F7E36195A
:103CA00055EB0C05A1FB034C4CF10003A0FB021CDF
:103CB00016EB0C06654153F10003094218BF46F0AC
:103CC000010613F4007F0BD14FEA03314FEA0530B0
:103CD000340341EA155140EA16506FF003020AE03E
:103CE0004FEAC3214FEAC520F40241EA555140EAA8
:103CF00056506FF0020202EB2E4201EB025585EAAC
:103D0000CE710AD05FEA440C18BF24F0004450F191
:103D1000000041F1000120EAD47040F2FE7C6245CF
:103D200000D270BDA84214BF4FF080444FF0404411
:103D3000002E08BF0024BEF1806FA8BFA1F1C041D2
:103D4000BDE8704080F282804FF0000001F1C04178
:103D500001F0004170479EEA0C0F0CEA131518BFE2
:103D600095EA0C0F06D04FF0000081EA030E0EF02A
:103D7000004170BD00F01CF88900013E00F007B85A
:103D800000F009B84FEA430C5FEA5C5C08D081EAB6
:103D9000030100F05BB84FEA410C5FEA5C5CF6D1CE
:103DA0004FF00000014970470000FF070000F87F56
:103DB0000EF1020E2EF0030E5EF8046B364205D4AF
:103DC000012A43EB030515F5001F12D8012841EB2A
:103DD000010C1CF5001F0CD80ED14FEAD17C15F553
:103DE000001F0CEB4C0C0CF1020C08BF4CEBD37C0D
:103DF00004E04FF0080C01E04FEAD37C0CEB4C05DB
:103E000026FA05F606F00706B6F1040C06D20EEB0C
:103E1000860CBDE870404CF0010C6047DFE80CF008
:103E2000090B02024FF000414FF00000A1F5002104
:103E300070BD19461046012851EB010418BFD4F596
:103E4000001484BF002001F0004170BD0808A0F5F7
:103E500000114FEA3101704753EA010C17D41CF5E9
:103E6000801F58BFBCF5801F00F106808B4218BF31
:103E7000704708BF8242704707D713F5801F58BFAD
:103E800011F5801F19D48B4270479B4270471CF577
:103E9000801F08D5BCF5801FF7D5994218BF704721
:103EA00008BF904270474FF4001C1CEB430F38BF13
:103EB0001CEB410F01D2994270470FB40CBC03BCFC
:103EC000FFF7C1BE43004FEAD30C4FEA3C0C43401E
:103ED0001FBF40070CF1605113F0FE4F70471CF0FC
:103EE000006F03D100200CF0004170470CF000433C
:103EF00043EA507010B540EACC0000F00EF800BF65
:103F0000000000924FEA0001FFF7A0BF4FF0004110
:103F10004FF00000A1F5002170470EF1020E2EF0C7
:103F2000030E5EF8044B244204D44FEA4102B2F17E
:103F30007F4F11D84FEA4003B3F17F4F0CD80ED119
:103F40004FEAD07CB2F17F4F0CEB4C0C0CF1020C21
:103F500008BF4CEBD17C04E04FF0080C01E04FEAC5
:103F6000D17C0CEB4C0324FA03F404F00704B4F105
:103F7000040C06D20EEB840CBDE810404CF0010C92
:103F80006047DFE80CF0070802024FF00040A0F5A0
:103F9000800010BD0846420018BFD2F1807288BF71
:103FA00000F0004010BD4FF04070E1EE100A704785
:103FB000FF2141EAD050C0057047FCF73FBCFCF739
:103FC00073BD000102030405060708090A0B0C0D66
:103FD0000E0F404142434445464748494A4B4C4DE9
:103FE0004E4F00000000000000000102030406071D
:103FF000080900000000010203040400000800009A
:1040000000000000000200010000103031323334A3
:1040100035363738396162636465667870003031EF
:1040200032333435363738394142434445465850A7
:104030000000000002400000000000A0000000009E
:1040400005400000000000C8000000000C40000017
:104050000000409C00000000194000000020BCBE91
:104060000000000034400000BFC91B8E00000004A7
:10407000B5400000504BCFD06607E2CF01000000F2
:104080006C4100003E8251AADFEEA734010000001F
:10409000D9420000DCB5A0E23A301F97FFFFFFFFD6
:1040A000B4450000FD25A0C8E9A3C14FFFFFFFFFF5
:1040B000FF3F00000000008000000000FF3F000004
:1040C0000000008000000000044100080000002003
:1040D00038000000D40100083C41000838000020EE
:1040E00028090000F00100081C0000004300000047
:1040F000F8FFFFFF0C0000000E0000000F000000A2
:104100002E00000000000000000000000000000081
:1041100000000000000000004EF001000000000060
:10412000101010100000000000000000010000004E
:0C41300010000000000000000024F4005B
:040000050800019955
:00000001FF
